:100000000C9462000C949F080C9478080C948A005D
:100010000C948A000C948A000C948A000C948A0038
:100020000C948A000C948A000C948A000C948A0028
:100030000C948A000C948A000C948A000C948A0018
:100040000C942E080C948A000C94EC080C94C608AE
:100050000C948A000C948A000C948A000C948A00F8
:100060000C941E090C948A00000000002400270054
:100070002A0000000000250028002B0000000008D6
:10008000000201000003040700000000000000005F
:1000900000000000230026002900040404040404D6
:1000A0000404020202020202030303030303010227
:1000B00004081020408001020408102001020408F6
:1000C00010203D0A11241FBECFEFD8E0DEBFCDBF08
:1000D00023E0A8E8B1E001C01D92A133B207E1F727
:1000E00011E0A0E0B1E0E2E7F3E202C005900D927A
:1000F000A838B107D9F710E0C2E6D0E004C02197D4
:10010000FE010E948C10C136D107C9F70E94B20AC5
:100110000C94B7110C940000CF92DF92EF92FF92F3
:10012000CF93DF93B0912103A0E08111AB2F809199
:10013000220390E0880F991FAC0140575F4FC09099
:100140002703D0902803E0902903F0902A0330E0A1
:1001500020E0FA01C591D491E881B90190E080E0F6
:10016000EB23EA130AC02F5F3F4F6C157D058E0508
:100170009F0578F36FEF7FEFCB01DF91CF91FF9079
:10018000EF90DF90CF90089508950895FC01538D6E
:10019000448D252F30E0842F90E0821B930B541761
:1001A00010F0CF96089501970895FC01918D828DEE
:1001B000981761F0A28DAE0FBF2FB11D5D968C9187
:1001C000928D9F5F9F73928F90E008958FEF9FEFC6
:1001D0000895FC01918D828D981731F0828DE80F82
:1001E000F11D858D90E008958FEF9FEF0895FC013C
:1001F000918D228D892F90E0805C9F4F821B910909
:100200008F7399270895FC01A48DA80FB92FB11DF4
:10021000A35ABF4F2C91848D90E001968F7399273C
:10022000848FA689B7892C93A089B1898C9183701A
:1002300080648C93938D848D981306C00288F38913
:10024000E02D80818F7D80830895EF92FF920F9340
:100250001F93CF93DF93EC0181E0888F9B8D8C8D72
:1002600098131AC0E889F989808185FF15C09FB766
:10027000F894EE89FF896083E889F9898081837029
:10028000806480839FBF81E090E0DF91CF911F91D8
:100290000F91FF90EF900895F62E0B8D10E00F5FF9
:1002A0001F4F0F731127E02E8C8D8E110CC00FB6CF
:1002B00007FCFACFE889F989808185FFF5CFCE0167
:1002C0000E940301F1CFEB8DEC0FFD2FF11DE35ADE
:1002D000FF4FF0829FB7F8940B8FEA89FB898081EA
:1002E0008062CFCFCF93DF93EC01888D8823B9F064
:1002F000AA89BB89E889F9898C9185FD03C0808131
:1003000086FD0DC00FB607FCF7CF8C9185FFF2CFAD
:10031000808185FFEDCFCE010E940301E9CFDF91FF
:10032000CF91089589E592E00E94F70021E0892BA2
:1003300009F420E0822F089580E090E0892B29F0D5
:100340000E94920181110C940000089590E0FC013C
:10035000E458FF4F2491FC01E255FF4F3491FC011A
:10036000E656FF4FE491EE23C9F0222339F0233003
:1003700001F1A8F4213019F1223029F1F0E0EE0F5B
:10038000FF1FEE58FF4FA591B4918FB7F894EC91F1
:10039000611126C030953E233C938FBF08952730CE
:1003A000A9F02830C9F0243049F7809180008F7D72
:1003B00003C0809180008F7780938000DFCF84B569
:1003C0008F7784BDDBCF84B58F7DFBCF8091B0006C
:1003D0008F778093B000D2CF8091B0008F7DF9CF1E
:1003E0003E2BDACFCF93DF9390E0FC01E255FF4F35
:1003F000249186569F4FFC0184918823D1F090E090
:10040000880F991FFC01E859FF4FA591B491FC0199
:10041000EE58FF4FC591D491623071F49FB7F894B4
:100420003C91822F809583238C93E8812E2B288307
:100430009FBFDF91CF9108958FB7F894EC912E2B49
:100440002C938FBFF6CF8E50806480937C00809178
:100450007A00806480937A0080917A0086FDFCCFD8
:10046000809178009091790008953FB7F894809139
:10047000FF0190910002A0910102B091020226B505
:10048000A89B05C02F3F19F00196A11DB11D3FBFCC
:10049000BA2FA92F982F8827BC01CD01620F711D9B
:1004A000811D911D42E0660F771F881F991F4A9595
:1004B000D1F708958F929F92AF92BF92CF92DF9221
:1004C000EF92FF924B015C010E9435026B017C01AF
:1004D0000E9435026C197D098E099F09683E7340A0
:1004E00081059105A8F321E0821A9108A108B108BD
:1004F00088EEC80E83E0D81EE11CF11C8114910423
:10050000A104B10429F7FF90EF90DF90CF90BF9046
:10051000AF909F908F9008952FB7F8946091FB0152
:100520007091FC018091FD019091FE012FBF089513
:10053000CF92DF92EF92FF920F931F93CF93DF93AF
:10054000CDB7DEB7C054D1400FB6F894DEBF0FBEB2
:10055000CDBF0E948C0200912303109124032091AF
:100560002503309126036B017C01C01AD10AE20AEF
:10057000F30A97018601003D17402105310590F4EB
:1005800080912B03C05CDE4F0FB6F894DEBF0FBE28
:10059000CDBFDF91CF911F910F91FF90EF90DF9032
:1005A000CF900895609323037093240380932503D1
:1005B0009093260310921E0310921D0310921C03A9
:1005C00010921B0310921A0362E080911F030E9495
:1005D000F20161E070E080E090E00E945A0261E088
:1005E00080911F030E94F20160E080911F030E942E
:1005F000A601809120038551823020F58BE291E1A4
:100600000197F1F762E080911F030E94F20180914F
:100610002C0390E08230910538F0880F991F880FE5
:10062000991F05970197F1F7F89480E00E948C00DC
:100630006F3F7F4F8F4F9F4F61F410922B03789441
:1006400080E0A0CF64E170E080E090E00E945A0278
:10065000D9CF81E00E948C006F3F7F4F8F4F9F4F1B
:1006600061F38E010F5F1F4F6E012FEBC21A2EEF49
:10067000D20A780180E00E948C00F70160837183C8
:100680008283938381E00E948C00F70164837583E9
:1006900086839783F8E0EF0EF11CEC14FD0451F70C
:1006A000789430E020E0F801C080D180E280F380CF
:1006B0004481558166817781FFEFCF16DF06EF0613
:1006C000FF0631F04F3F8FEF58076807780719F49E
:1006D00010922B03B5CFF90183E0F595E7958A9544
:1006E000E1F7E65EFC4F8081880FC416D506E6066A
:1006F000F70610F180832F5F3F4F085F1F4F2832AE
:10070000310589F640911E0320911A0380911B0345
:10071000280F3327331F80911C03280F311D809130
:100720001D03820F932F911D99274817190681F6F3
:1007300081E080932B0326CF8160DCCFCF92DF92C4
:10074000EF92FF920E948C026B017C0180918801E4
:1007500090918901A0918A01B0918B01A701960126
:10076000281B390B4A0B5B0B2D3281E03807410502
:10077000510590F060E67AEE80E090E00E946A1009
:100780003093F1012093F001C0928801D092890149
:10079000E0928A01F0928B01FF90EF90DF90CF9072
:1007A00008950895AF92BF92CF92DF92EF92FF9299
:1007B0000F931F93CF93DF936C017B018B01040F89
:1007C000151FEB015E01AE18BF08C017D10759F025
:1007D0006991D601ED91FC910190F081E02DC60167
:1007E0000995892B79F7C501DF91CF911F910F9161
:1007F000FF90EF90DF90CF90BF90AF900895089555
:100800002091AD01260F3327331F21323105ECF43F
:1008100020912F02FC0190E080E0243069F082E01A
:100820000895A091AD012191AC0143575E4FA40FF3
:10083000B52FB11D2C930196861798F38091AD01C9
:10084000680F6093AD0180E0089581E008951092F3
:100850002F0281E080932E021092090261E082E172
:100860000E94A60161E083E10E94A601E9EBF0E0AD
:1008700080818E7F808380818D7F808388E48093D8
:10088000B80085E48093BC0008951092080210928D
:10089000070210923602109258020E94270484EC3C
:1008A00090E0909306028093050285EC90E090938F
:1008B0000402809303020895CF93DF9391E0909315
:1008C0008C018823B9F0C091B800D091BA00809112
:1008D000BC008A7B8093BC0060E082E10E94A6019C
:1008E00060E083E10E94A6010E942704D093BA0031
:1008F000C093B800DF91CF9108958F929F92AF92ED
:10090000BF92CF92DF92EF92FF920F931F93CF93FC
:10091000DF93D0915802D13208F0D7C0182FC09180
:1009200057020E9435026B017C0180912F028111D8
:100930006BC082E080932F0210932E028FEF809382
:100940002D0210922C02D0932B02A7E3B2E0EBE031
:10095000F2E080E0D81391C010920A0280910A025E
:10096000CC0FC82BC0930A0280910902813009F094
:1009700088C0109209020E9435026B017C018091AF
:100980000A028093BB008091310290913202A091C3
:100990003302B0913402892B8A2B8B2BA1F00E9459
:1009A00035020091310210913202209133023091D0
:1009B00034026C197D098E099F090617170728074D
:1009C000390708F442C08091BC0083FDD8CF85EC84
:1009D0008093BC000E9435026B017C0180912F0244
:1009E000823009F450C080912D028F3F09F46FC00E
:1009F00080912D02803209F46CC080912D028033E9
:100A000009F469C084E026C08091310290913202DD
:100A1000A0913302B0913402892B8A2B8B2B09F4DD
:100A200084CF0E9435028090310290903202A090D3
:100A30003302B09034026C197D098E099F09861625
:100A40009706A806B90608F070CF809130020E9480
:100A50005C0485E010923602109258021092350222
:100A6000DF91CF911F910F91FF90EF90DF90CF908A
:100A7000BF90AF909F908F9008959D9191938F5FBD
:100A800069CF85EEA5CF8091310290913202A0917D
:100A90003302B0913402892B8A2B8B2B09F49ECF21
:100AA0000E943502009131021091320220913302EE
:100AB000309134026C197D098E099F0906171707BA
:100AC0002807390708F08ACFC0CF81E0C3CF80E084
:100AD000C1CF82E0BFCF83E0BDCFCF93DF93EC01E6
:100AE0008B818823A1F0888191E0909335028093D7
:100AF0005702109236021092580281E00E947D0443
:100B000091E0811190E0892FDF91CF9108950E94AB
:100B1000450481E08B83CE010E946D05982F8111E1
:100B2000E2CFF1CF0895E091080280910702E81723
:100B300030F4F0E0E053FE4F808190E008958FEFB5
:100B40009FEF089590910802809107022FEF3FEFE9
:100B5000981748F4E92FF0E0E053FE4F208130E091
:100B60009F5F90930802C9010895809107029091B8
:100B70000802891B990B0895CF92DF92EF92FF92A2
:100B80000F931F93CF93DF937C01CB018A012091B8
:100B90003502222389F0EB016B01C40ED51ECC1562
:100BA000DD0569F06991D701ED91FC910190F0812B
:100BB000E02DC7010995F3CF642F0E940004C801FE
:100BC000DF91CF911F910F91FF90EF90DF90CF9029
:100BD0000895CF93DF931F92CDB7DEB7698320913D
:100BE00035022223F9F020915802203258F021E0FA
:100BF00030E0FC013383228390E080E00F90DF91AE
:100C0000CF91089580913602E82FF0E0E95CFD4F26
:100C1000998190838F5F809336028093580281E0A0
:100C200090E0ECCF61E0CE0101960E940004F7CF86
:100C300090E080E008958F929F92AF92BF920F93C1
:100C40001F93CF93DF93CDB7DEB7A1970FB6F8947C
:100C5000DEBF0FBECDBF19A2423008F44AE08E01BC
:100C60000F5D1F4F842E912CB12CA12CA501940156
:100C70000E946A10E62FB901CA01EA3044F5E05D2E
:100C8000D801EE938D01232B242B252B79F790E0AF
:100C900080E0109769F0FD0101900020E9F731979D
:100CA000AF014A1B5B0BBD0182E093E00E94D203BF
:100CB000A1960FB6F894DEBF0FBECDBFDF91CF91E6
:100CC0001F910F91BF90AF909F908F900895E95C16
:100CD000D7CFFC0101900020E9F73197AF01481B05
:100CE000590BBC0182E093E00C94D203CF93DF93C5
:100CF000EC0160E08E810E94A60161E08E810E947D
:100D0000A60160E08E810E94A6018BE891E0019728
:100D1000F1F7DF91CF910895CF92DF92EF92FF929A
:100D20000F931F93CF93DF936C017C0187E0E80E54
:100D3000F11CD0E0C0E0062F10E0B8010C2E02C07C
:100D4000759567950A94E2F76170F70181917F01CB
:100D50000E94A6012196C430D10579F7C601DF9122
:100D6000CF911F910F91FF90EF90DF90CF900C9457
:100D70007606CF92DF92EF92FF920F931F93CF935D
:100D8000DF93EC01F62E642F8C810E94A6018D81E9
:100D90008F3F19F060E00E94A6010F2D10E08F85B3
:100DA00084FF25C06E0187E0C80ED11CF12CE12C18
:100DB000B8010E2C02C0759567950A94E2F7617030
:100DC000F60181916F010E94A601FFEFEF1AFF0A61
:100DD00088E0E816F10461F7CE01DF91CF911F9111
:100DE0000F91FF90EF90DF90CF900C947606B801B2
:100DF00084E0759567958A95E1F7CE010E948C068F
:100E00006F2DCE01DF91CF911F910F91FF90EF9049
:100E1000DF90CF900C948C0640E0682F82E093E046
:100E20000C94B906CF93DF93823029F4909111038B
:100E3000986090931103809315031092160380E439
:100E40008093170380E18093180380E58093190352
:100E500061E0809106030E94F201809107038F3FB9
:100E600019F061E00E94F20161E0809108030E94A4
:100E7000F201C2E0D3E09E01225033408091110381
:100E800084FD0BC084E090E021962817390744F4D4
:100E900061E08E810E94F201EECF88E090E0F4CF15
:100EA0008BE39DE00197F1F760E0809106030E94DB
:100EB000A60160E0809108030E94A60180910703CB
:100EC0008F3F19F060E00E94A6018091110384FD1C
:100ED00039C063E082E093E00E948C06CBE4D6E464
:100EE000CE010197F1F763E082E093E00E948C0667
:100EF0002197F1F763E082E093E00E948C0683E59E
:100F000092E00197F1F762E082E093E00E948C06A4
:100F10008091110380620E940C0784E08093120389
:100F20008CE00E940C0781E00E940C078BE39FE19C
:100F30000197F1F782E08093130386E0DF91CF9170
:100F40000C940C0780620E940C078BE496E40197D6
:100F5000F1F78091110380620E940C0783E592E013
:100F60000197F1F78091110380620E940C07D0CFA6
:100F700090911503691710F06FEF690FE62FF0E0FD
:100F8000EE5FFC4F9489890F80680C940C0741E058
:100F90000E94B90681E090E00895CF92DF92EF922F
:100FA000FF926C01990FEE08FF08F7FE16C041E0B2
:100FB0006DE282E093E00E94B90666277727CB01B5
:100FC0006C197D098E099F094AE00E941B06019653
:100FD000FF90EF90DF90CF9008954AE0C701B601EF
:100FE000FF90EF90DF90CF900C941B0685ED8093DF
:100FF000BC008091310290913202A0913302B091F5
:1010000034020796A11DB11D23E0B695A7959795CB
:1010100087952A95D1F72091BC0024FD03C010923A
:101020002F020895409131025091320260913302B3
:1010300070913402452B462B472B69F30097A1058D
:10104000B10541F02AE22A95F1F700C00197A10904
:10105000B109E1CF809130020C945C041F920F9291
:101060000FB60F9211242F933F938F939F93AF93BB
:10107000BF938091FB019091FC01A091FD01B09183
:10108000FE013091FA0123E0230F2D3758F5019628
:10109000A11DB11D2093FA018093FB019093FC01E7
:1010A000A093FD01B093FE018091FF019091000299
:1010B000A0910102B09102020196A11DB11D809381
:1010C000FF0190930002A0930102B0930202BF912E
:1010D000AF919F918F913F912F910F900FBE0F90E5
:1010E0001F90189526E8230F0296A11DB11DD2CF9F
:1010F0001F920F920FB60F9211242F933F934F938D
:101100005F936F937F938F939F93AF93BF93EF936F
:10111000FF93E0910201F09103010995FF91EF9196
:10112000BF91AF919F918F917F916F915F914F91FF
:101130003F912F910F900FBE0F901F9018951F9207
:101140000F920FB60F9211242F933F934F935F93FB
:101150006F937F938F939F93AF93BF93EF93FF937F
:10116000E0910001F09101010995FF91EF91BF918C
:10117000AF919F918F917F916F915F914F913F912F
:101180002F910F900FBE0F901F9018951F920F92E6
:101190000FB60F9211242F933F934F935F936F934A
:1011A0007F938F939F93AF93BF93EF93FF9389E5C3
:1011B00092E00E940301FF91EF91BF91AF919F9147
:1011C0008F917F916F915F914F913F912F910F90F0
:1011D0000FBE0F901F9018951F920F920FB60F928F
:1011E00011242F938F939F93EF93FF93E0916902C4
:1011F000F0916A028081E0916F02F091700282FDAD
:101200001BC09081809172028F5F8F732091730257
:10121000821741F0E0917202F0E0E75AFD4F958F9E
:1012200080937202FF91EF919F918F912F910F9078
:101230000FBE0F901F9018958081F4CF1F920F92D0
:101240000FB60F9211242F933F934F935F936F9399
:101250007F938F939F93AF93BF93EF93FF9380916F
:10126000B900887F803609F44AC0F0F5883209F465
:10127000A7C018F5803109F49BC0B8F4882309F49D
:10128000F9C0883009F494C0FF91EF91BF91AF91FC
:101290009F918F917F916F915F914F913F912F918E
:1012A0000F900FBE0F901F901895883109F488C0D9
:1012B000803251F780932D0214C0803409F49DC010
:1012C00040F48033B9F38833F9F680932D0285EC2E
:1012D000B0C0803509F485C0883509F496C08834DB
:1012E00099F60E94F607D0CF883909F48CC038F5FA
:1012F000883729F050F4883611F0803729F683E0DA
:1013000080932F021092CF0157C0883809F47BC018
:10131000803919F0803809F0B7CF8091CF01803241
:1013200008F071C0E091CF0181E08E0F8093CF0172
:101330008091BB00F0E0E155FE4F80833DC0803BD3
:1013400039F0E0F4803A09F479C0883A09F09CCF8A
:1013500084E080932F021092AE011092AD01E091D3
:101360000502F091060209958091AD0181110FC02F
:1013700081E08093AD0110928D0109C0803C09F499
:10138000A6CF883C09F4A3CF883B09F07DCFE0913C
:10139000AE0181E08E0F8093AE01F0E0E357FE4F87
:1013A00080818093BB009091AE018091AD0129C0F6
:1013B00080910A028093BB0085EC8093BC0064CFCF
:1013C00090912C0280912B02981758F5E0912C02F5
:1013D00081E08E0F80932C02F0E0E55FFD4F80816D
:1013E000E9CFE0912C0281E08E0F80932C02809156
:1013F000BB00F0E0E55FFD4F808390912C0280916F
:101400002B029817C8F285E8D8CFE0912C0281E032
:101410008E0F80932C028091BB00F0E0E55FFD4FC2
:10142000808380912E0281115CCF81E0809309023C
:1014300084EA8093BC0010922F0226CF85EC809323
:10144000BC0010922F028091CF01803230F4E091E5
:10145000CF01F0E0E155FE4F10826091CF0170E0C6
:10146000E0910302F09104028FEA91E00995109255
:10147000CF010ACF10922D0234CFE9E5F2E01382BA
:10148000128288EE93E0A0E0B0E084839583A68387
:10149000B7832EE031E03183208325EC30E03587BF
:1014A000248724EC30E03787268720EC30E0318B2E
:1014B000208B21EC30E0338B228B22EC30E0358B1B
:1014C000248B26EC30E0378B268B118E128E138EF8
:1014D000148EE6EFF2E01382128284839583A68352
:1014E000B78380E291E091838083AAE1B3E087E053
:1014F00015968C9315978BE016968C931697E5EBC3
:10150000F0E0E4911796EC931797E1EAF0E0E491AC
:101510001896EC93189740E85EE360E070E01D9643
:101520004D935D936D937C935097E2E0F3E01382CB
:10153000128222E331E0318320839CE094839FEF89
:101540009583868385E0878384E0808786E0818732
:1015500082E082871386148615861686178681E0B8
:101560000C941207CF93DF9300D000D000D01F92CD
:10157000CDB7DEB7789484B5826084BD84B58160D0
:1015800084BD85B5826085BD85B5816085BD80914E
:101590006E00816080936E001092810080918100C6
:1015A00082608093810080918100816080938100BE
:1015B000809180008160809380008091B100846080
:1015C0008093B1008091B00081608093B0008091E1
:1015D0007A00846080937A0080917A0082608093A0
:1015E0007A0080917A00816080937A0080917A00FD
:1015F000806880937A001092C10082E00E941207F6
:1016000062E083E00E94F2018EE993E0909303018F
:1016100080930201809169008C6080936900E99A4F
:1016200062E080911F030E94F2010E948C02605DC3
:101630007740810991096093230370932403809379
:1016400025039093260387E380932C030E9445048F
:101650008091F2019091F301009711F00E942E11F8
:1016600086E090E00E9492108C0188E6D8018C936D
:1016700086EF92E012969C938E93119713961C928C
:10168000139780E290E015969C938E931497109395
:10169000F3010093F2010E94450481E0F801838385
:1016A000C8010E946D058AE391E00E94690668EE18
:1016B00073E080E090E00E945A02A7E06A2E712C4D
:1016C0000E948C020091F6011091F7012091F8011F
:1016D0003091F901601B710B820B930B613D7740D8
:1016E0008105910508F4E2C10E948C026093F60125
:1016F0007093F7018093F8019093F90181E00E94C3
:101700000C078BE39FE10197F1F78091F401909131
:10171000F501009709F0D7C11982A090F201B090AD
:10172000F301D50114968D919C911597892B09F49D
:1017300022C111968D919C9112972C9131E030939A
:101740003502209357021092360210925802DC01A3
:10175000ED91FC910280F381E02D41E050E0BE016B
:101760006F5F7F4F0995019709F005C180E00E94E6
:101770007D04811100C1D12CC12CF501848195819A
:101780007301EC18FD088E159F0508F47C01D50146
:101790000C910E9435021B012C0180912F028111B6
:1017A00073C01E2D113208F010E2B1E0B0932F0289
:1017B00021E0C3018E199F09C816D90608F420E05C
:1017C00020932E02EFEFE0932D0210922C028FEF68
:1017D000810F80932B02F1E0F0930A0280910A02BC
:1017E000000F082B00930A0280910902813009F052
:1017F00095C0109209020E9435021B012C018091B4
:101800000A028093BB008091310290913202A09134
:101810003302B0913402892B8A2B8B2BA1F00E94CA
:1018200035022091310230913202409133025091C1
:101830003402621973098409950926173707480786
:10184000590708F442C08091BC0083FDD8CF25EC35
:101850002093BC000E9435021B012C0180912F02B5
:10186000813009F45FC080912C02811710F410912F
:101870002C02ABE0B2E0E0EDF1E080E0811751F145
:101880009D9191938F5FFACF8091310290913202B6
:10189000A0913302B0913402892B8A2B8B2B09F44F
:1018A0007CCF0E943502209131023091320240916A
:1018B000330250913402621973098409950926177D
:1018C00037074807590708F068CF809130020E9417
:1018D0005C0410E010920802109307021E151F040A
:1018E00009F049C001E010E00C0F1D1F0C0D1D1D7B
:1018F0004801C801881999098E159F05A8F5D501D9
:1019000011968D919C91DC01ED91FC910284F385FF
:10191000E02D0995F80181938F01EBCF85EE80933F
:10192000BC0098CF8091310290913202A091330295
:10193000B0913402892B8A2B8B2B09F48FCF0E9414
:1019400035022091310230913202409133025091A0
:101950003402621973098409950926173707480765
:10196000590708F07BCFB1CFCE0CDF1CF7E0CF16C4
:10197000D10408F402CFCA806B81862F90E0F4E096
:1019800095958795FA95E1F7982F990F990F082F5C
:10199000091B000F060FDD80EE80FF8060E080E015
:1019A0000E94B8078CE491E00E9469060A3020F496
:1019B00083E591E00E9469066C2D70E0E4E0759586
:1019C0006795EA95E1F7862F880F880F162F181B69
:1019D000110F1C0D602F70E090E080E04AE00E9443
:1019E0001B0681E691E00E9469061A3020F483E527
:1019F00091E00E946906612F70E090E080E04AE08B
:101A00000E941B0661E080E00E94B80785E591E036
:101A10000E9469066D2D70E034E0759567953A95E2
:101A2000E1F7862F880F880F681B660FD60E6D2D85
:101A300070E090E080E04AE00E941B068CE591E0B7
:101A40000E9469066E2D70E044E0759567954A9591
:101A5000E1F7862F880F880F681B660FE60E6E2D44
:101A600070E090E080E04AE00E941B068CE591E087
:101A70000E9469066F2D70E054E0759567955A9540
:101A8000E1F7862F880F880F681B660FF60E6F2D03
:101A900070E06053784F90E080E04AE00E941B06BF
:101AA00081E090E09093F5018093F401E0E0F0E0B4
:101AB000EF2B09F405CE0E949201882309F400CE91
:101AC0000E940000FDCD019709F011C10E9498020B
:101AD000882341F0809120038C3009F462C048F4DF
:101AE0008B3001F1C12CD12C90ECE92E9FE7F92E1F
:101AF00043C085518230B0F710911C03612F70E014
:101B0000762F662766277F7780911D03682B90E0EC
:101B100080E00E94A30E2DEC3CEC4CEC5DE30E94B7
:101B2000040F5BC060911C0370E090E080E00E94B5
:101B3000A30E6B017C0110911D0317FF0AC0AC01BD
:101B40009B0160E070E080E89FEB0E94C20F6B0198
:101B50007C011F70612F70E090E080E00E94A50E74
:101B60002DEC3CEC4CEC5DE30E94040FA7019601C8
:101B70000E94C30F6B017C010E949802882351F0E0
:101B8000809120038B3030F08D3080F18551823090
:101B900008F495C0812C912C80ECA82E8FE7B82EEC
:101BA00043C010911C03612F70E090E080E00E9420
:101BB000A30E6B017C0160911D036F7070E090E0DB
:101BC00080E00E94A50E2DEC3CEC4CEC5DE30E9405
:101BD000040FA70196010E94C30F6B017C0117FF40
:101BE000CBCFF7FAF094F7F8F094C6CF60911B03CF
:101BF00070E090E080E00E94A50E2DEC3CEC4CECF7
:101C00005DE30E94040F4B015C0160911A0370E0D8
:101C100090E080E00E94A50E9B01AC01C501B401DB
:101C20000E94C30F4B015C0160E080E00E94B80796
:101C30008EE591E00E9469068091F0019091F1019A
:101C40000E94CD0760E089E00E94B80783E691E03A
:101C50000E946906A7019601C701B6010E9465109E
:101C600081113FC0C701B6010E942F10CB010E9415
:101C7000CD0786E691E00E94690661E080E00E945F
:101C8000B80788E691E00E946906A5019401C501A4
:101C9000B4010E946510811127C0C501B4010E94E2
:101CA0002F10CB010E94CD0783E791E00E946906C7
:101CB000A2E0B0E0B093F501A093F401F7CE6091FB
:101CC0001A0370911B0376276727762790E080E040
:101CD0000E94A30E2DEC3CEC4CEC5DE30E94040F43
:101CE000A1CF90E080E0C3CF90E080E0DBCF60E068
:101CF00080E00E94B80785E791E00E9469068EE0C7
:101D00000E9423020E94CD0788E791E00E946906A5
:101D10008FE00E9423020E94CD0761E080E00E94D4
:101D2000B8078CE791E00E94690680E10E942302D7
:101D30000E94CD078FE791E00E9469061092F5019D
:101D40001092F401B3CEE89409C097FB3EF490954D
:101D50008095709561957F4F8F4F9F4F9923A9F084
:101D6000F92F96E9BB279395F69587957795679513
:101D7000B795F111F8CFFAF4BB0F11F460FF1BC057
:101D80006F5F7F4F8F4F9F4F16C0882311F096E9EA
:101D900011C0772321F09EE8872F762F05C0662398
:101DA00071F096E8862F70E060E02AF09A95660F51
:101DB000771F881FDAF7880F9695879597F908950A
:101DC000990F0008550FAA0BE0E8FEEF161617064C
:101DD000E807F907C0F012161306E407F50798F0B4
:101DE000621B730B840B950B39F40A2661F0232BCD
:101DF000242B252B21F408950A2609F4A140A69549
:101E00008FEF811D811D08950E94170F0C94880F7C
:101E10000E947A0F38F00E94810F20F0952311F074
:101E20000C94710F0C94770F11240C94BC0F0E942A
:101E3000990F70F3959FC1F3950F50E0551F629F66
:101E4000F001729FBB27F00DB11D639FAA27F00D13
:101E5000B11DAA1F649F6627B00DA11D661F829F3A
:101E60002227B00DA11D621F739FB00DA11D621F1F
:101E7000839FA00D611D221F749F3327A00D611D3C
:101E8000231F849F600D211D822F762F6A2F11241E
:101E90009F5750409AF0F1F088234AF0EE0FFF1F51
:101EA000BB1F661F771F881F91505040A9F79E3FA8
:101EB000510580F00C94710F0C94BC0F5F3FE4F35C
:101EC000983ED4F3869577956795B795F795E795FE
:101ED0009F5FC1F7FE2B880F911D9695879597F907
:101EE000089597F99F6780E870E060E008959FEF9C
:101EF00080EC089500240A941616170618060906A1
:101F0000089500240A94121613061406050608956F
:101F1000092E0394000C11F4882352F0BB0F40F4F7
:101F2000BF2B11F460FF04C06F5F7F4F8F4F9F4F37
:101F3000089557FD9058440F551F59F05F3F71F0B9
:101F40004795880F97FB991F61F09F3F79F0879520
:101F50000895121613061406551FF2CF4695F1DFA9
:101F600008C0161617061806991FF1CF8695710539
:101F7000610508940895E894BB2766277727CB016D
:101F800097F908955058BB27AA270E94DA0F0C949E
:101F9000880F0E947A0F38F00E94810F20F039F4E8
:101FA0009F3F19F426F40C94770F0EF4E095E7FBAD
:101FB0000C94710FE92F0E94990F58F3BA1762071A
:101FC00073078407950720F079F4A6F50C94BB0FEE
:101FD0000EF4E0950B2EBA2FA02D0B01B901900144
:101FE0000C01CA01A0011124FF27591B99F0593F88
:101FF00050F4503E68F11A16F040A22F232F342FD0
:102000004427585FF3CF469537952795A795F0401D
:102010005395C9F77EF41F16BA0B620B730B840B32
:10202000BAF09150A1F0FF0FBB1F661F771F881FEA
:10203000C2F70EC0BA0F621F731F841F48F4879542
:1020400077956795B795F7959E3F08F0B0CF939534
:10205000880F08F09927EE0F9795879508950E94AD
:1020600036106894B1110C94BC0F08950E94A10F12
:1020700088F09F5798F0B92F9927B751B0F0E1F049
:10208000660F771F881F991F1AF0BA95C9F714C0F9
:10209000B13091F00E94BB0FB1E008950C94BB0FDA
:1020A000672F782F8827B85F39F0B93FCCF3869532
:1020B00077956795B395D9F73EF49095809570958F
:1020C00061957F4F8F4F9F4F08950E94E00E880BC0
:1020D000990B0895A1E21A2EAA1BBB1BFD010DC08E
:1020E000AA1FBB1FEE1FFF1FA217B307E407F507C8
:1020F00020F0A21BB30BE40BF50B661F771F881FA4
:10210000991F1A9469F760957095809590959B0139
:10211000AC01BD01CF010895EE0FFF1F0590F491B2
:10212000E02D09940F931F93CF93DF938230910595
:1021300010F482E090E0E0912F03F091300330E062
:1021400020E0B0E0A0E0309799F42115310509F4C2
:102150004AC0281B390B24303105D8F58A819B8170
:102160006115710589F1FB0193838283FE0111C022
:10217000408151810281138148175907E0F04817C7
:10218000590799F4109761F012960C9312971396D1
:102190001C933296CF01DF91CF911F910F9108953B
:1021A00000932F0310933003F4CF2115310551F024
:1021B0004217530738F0A901DB019A01BD01DF0185
:1021C000F801C1CFEF01F9CF9093300380932F0333
:1021D000CDCFFE01E20FF31F81939193225031097D
:1021E00039832883D7CF20912D0330912E03232BC1
:1021F00041F4209106013091070130932E03209382
:102200002D0320910401309105012115310541F480
:102210002DB73EB74091080150910901241B350BA1
:10222000E0912D03F0912E03E217F307A0F42E1B8B
:102230003F0B2817390778F0AC014E5F5F4F24172A
:10224000350748F04E0F5F1F50932E0340932D0328
:10225000819391939FCFF0E0E0E09CCFCF93DF9309
:102260000097E9F0FC01329713821282A0912F03AC
:10227000B0913003ED0130E020E01097A1F420810F
:102280003181820F931F20912D0330912E03281747
:10229000390709F061C0F0932E03E0932D03DF911D
:1022A000CF910895EA01CE17DF07E8F54A815B81F7
:1022B0009E0141155105B1F7E901FB83EA8349917C
:1022C0005991C40FD51FEC17FD0761F480819181EE
:1022D0000296840F951FE9019983888382819381F7
:1022E0009B838A83F0E0E0E012968D919C91139796
:1022F0000097B9F52D913C911197CD010296820F6F
:10230000931F20912D0330912E032817390739F69A
:10231000309751F51092300310922F03B0932E0393
:10232000A0932D03BCCFD383C28340815181840FFE
:10233000951FC817D90761F44E5F5F4F8881998157
:10234000480F591F518340838A819B8193838283E5
:102350002115310509F0B0CFF0933003E0932F033E
:102360009ECFFD01DC01C0CF13821282D7CFF8943B
:02237000FFCF9D
:10237200D103D103000031038000000000002501D9
:10238200D203C6007201F700D500E9000000000088
:10239200E905BC0518069205B505A20593050000DE
:1023A2000000C707D2031806FF0353797374656DE3
:1023B200204C6F6164696E672E2E2E0054696D6524
:1023C2003A20003000446174653A20002F004250E8
:1023D2004D3A00543A00430048756D696469747956
:1023E2003A20002500583A0020593A005A3A002073
:0823F200205B5343414E5D00E6
:00000001FF
